{
  "abi": [
    {
      "type": "constructor",
      "inputs": [
        {
          "name": "initialOwner",
          "type": "address",
          "internalType": "address"
        },
        {
          "name": "_token",
          "type": "address",
          "internalType": "contract IERC20"
        }
      ],
      "stateMutability": "nonpayable"
    },
    {
      "type": "function",
      "name": "DOMAIN_SEPARATOR",
      "inputs": [],
      "outputs": [
        {
          "name": "",
          "type": "bytes32",
          "internalType": "bytes32"
        }
      ],
      "stateMutability": "view"
    },
    {
      "type": "function",
      "name": "EIP712_DOMAIN_TYPEHASH",
      "inputs": [],
      "outputs": [
        {
          "name": "",
          "type": "bytes32",
          "internalType": "bytes32"
        }
      ],
      "stateMutability": "view"
    },
    {
      "type": "function",
      "name": "SIGNIN_TYPE",
      "inputs": [],
      "outputs": [
        {
          "name": "",
          "type": "string",
          "internalType": "string"
        }
      ],
      "stateMutability": "view"
    },
    {
      "type": "function",
      "name": "SIGNIN_TYPEHASH",
      "inputs": [],
      "outputs": [
        {
          "name": "",
          "type": "bytes32",
          "internalType": "bytes32"
        }
      ],
      "stateMutability": "view"
    },
    {
      "type": "function",
      "name": "addApprover",
      "inputs": [
        {
          "name": "approver",
          "type": "address",
          "internalType": "address"
        }
      ],
      "outputs": [],
      "stateMutability": "nonpayable"
    },
    {
      "type": "function",
      "name": "addDonor",
      "inputs": [
        {
          "name": "donor",
          "type": "address",
          "internalType": "address"
        }
      ],
      "outputs": [],
      "stateMutability": "nonpayable"
    },
    {
      "type": "function",
      "name": "addResearcher",
      "inputs": [
        {
          "name": "researcher",
          "type": "address",
          "internalType": "address"
        }
      ],
      "outputs": [],
      "stateMutability": "nonpayable"
    },
    {
      "type": "function",
      "name": "approve",
      "inputs": [
        {
          "name": "proposalId",
          "type": "uint256",
          "internalType": "uint256"
        }
      ],
      "outputs": [],
      "stateMutability": "nonpayable"
    },
    {
      "type": "function",
      "name": "deposit",
      "inputs": [
        {
          "name": "_amount",
          "type": "uint256",
          "internalType": "uint256"
        }
      ],
      "outputs": [],
      "stateMutability": "nonpayable"
    },
    {
      "type": "function",
      "name": "getProposal",
      "inputs": [
        {
          "name": "proposalId",
          "type": "uint256",
          "internalType": "uint256"
        }
      ],
      "outputs": [
        {
          "name": "",
          "type": "tuple",
          "internalType": "struct Treasury.Proposal",
          "components": [
            {
              "name": "fund",
              "type": "uint256",
              "internalType": "uint256"
            },
            {
              "name": "threshold",
              "type": "uint8",
              "internalType": "uint8"
            },
            {
              "name": "period",
              "type": "uint256",
              "internalType": "uint256"
            },
            {
              "name": "createdAt",
              "type": "uint256",
              "internalType": "uint256"
            },
            {
              "name": "totalVotes",
              "type": "uint256",
              "internalType": "uint256"
            },
            {
              "name": "totalYes",
              "type": "uint256",
              "internalType": "uint256"
            },
            {
              "name": "isApproved",
              "type": "bool",
              "internalType": "bool"
            }
          ]
        }
      ],
      "stateMutability": "view"
    },
    {
      "type": "function",
      "name": "getProposals",
      "inputs": [
        {
          "name": "offset",
          "type": "uint256",
          "internalType": "uint256"
        },
        {
          "name": "limit",
          "type": "uint256",
          "internalType": "uint256"
        }
      ],
      "outputs": [
        {
          "name": "",
          "type": "tuple[]",
          "internalType": "struct Treasury.Proposal[]",
          "components": [
            {
              "name": "fund",
              "type": "uint256",
              "internalType": "uint256"
            },
            {
              "name": "threshold",
              "type": "uint8",
              "internalType": "uint8"
            },
            {
              "name": "period",
              "type": "uint256",
              "internalType": "uint256"
            },
            {
              "name": "createdAt",
              "type": "uint256",
              "internalType": "uint256"
            },
            {
              "name": "totalVotes",
              "type": "uint256",
              "internalType": "uint256"
            },
            {
              "name": "totalYes",
              "type": "uint256",
              "internalType": "uint256"
            },
            {
              "name": "isApproved",
              "type": "bool",
              "internalType": "bool"
            }
          ]
        }
      ],
      "stateMutability": "view"
    },
    {
      "type": "function",
      "name": "owner",
      "inputs": [],
      "outputs": [
        {
          "name": "",
          "type": "address",
          "internalType": "address"
        }
      ],
      "stateMutability": "view"
    },
    {
      "type": "function",
      "name": "propose",
      "inputs": [
        {
          "name": "fund",
          "type": "uint256",
          "internalType": "uint256"
        }
      ],
      "outputs": [
        {
          "name": "",
          "type": "uint256",
          "internalType": "uint256"
        }
      ],
      "stateMutability": "nonpayable"
    },
    {
      "type": "function",
      "name": "renounceOwnership",
      "inputs": [],
      "outputs": [],
      "stateMutability": "nonpayable"
    },
    {
      "type": "function",
      "name": "setPeriod",
      "inputs": [
        {
          "name": "proposalId",
          "type": "uint256",
          "internalType": "uint256"
        },
        {
          "name": "period",
          "type": "uint256",
          "internalType": "uint256"
        }
      ],
      "outputs": [],
      "stateMutability": "nonpayable"
    },
    {
      "type": "function",
      "name": "setThreshold",
      "inputs": [
        {
          "name": "proposalId",
          "type": "uint256",
          "internalType": "uint256"
        },
        {
          "name": "threshold",
          "type": "uint8",
          "internalType": "uint8"
        }
      ],
      "outputs": [],
      "stateMutability": "nonpayable"
    },
    {
      "type": "function",
      "name": "token",
      "inputs": [],
      "outputs": [
        {
          "name": "",
          "type": "address",
          "internalType": "contract IERC20"
        }
      ],
      "stateMutability": "view"
    },
    {
      "type": "function",
      "name": "transferOwnership",
      "inputs": [
        {
          "name": "newOwner",
          "type": "address",
          "internalType": "address"
        }
      ],
      "outputs": [],
      "stateMutability": "nonpayable"
    },
    {
      "type": "function",
      "name": "vote",
      "inputs": [
        {
          "name": "proposalId",
          "type": "uint256",
          "internalType": "uint256"
        },
        {
          "name": "yes",
          "type": "bool",
          "internalType": "bool"
        }
      ],
      "outputs": [],
      "stateMutability": "nonpayable"
    },
    {
      "type": "function",
      "name": "withdraw",
      "inputs": [
        {
          "name": "proposalId",
          "type": "uint256",
          "internalType": "uint256"
        }
      ],
      "outputs": [],
      "stateMutability": "nonpayable"
    },
    {
      "type": "event",
      "name": "Approve",
      "inputs": [
        {
          "name": "proposalId",
          "type": "uint256",
          "indexed": true,
          "internalType": "uint256"
        },
        {
          "name": "fund",
          "type": "uint256",
          "indexed": false,
          "internalType": "uint256"
        },
        {
          "name": "threshold",
          "type": "uint8",
          "indexed": false,
          "internalType": "uint8"
        }
      ],
      "anonymous": false
    },
    {
      "type": "event",
      "name": "OwnershipTransferred",
      "inputs": [
        {
          "name": "previousOwner",
          "type": "address",
          "indexed": true,
          "internalType": "address"
        },
        {
          "name": "newOwner",
          "type": "address",
          "indexed": true,
          "internalType": "address"
        }
      ],
      "anonymous": false
    },
    {
      "type": "event",
      "name": "Propose",
      "inputs": [
        {
          "name": "proposalId",
          "type": "uint256",
          "indexed": true,
          "internalType": "uint256"
        },
        {
          "name": "fund",
          "type": "uint256",
          "indexed": false,
          "internalType": "uint256"
        },
        {
          "name": "threshold",
          "type": "uint8",
          "indexed": false,
          "internalType": "uint8"
        },
        {
          "name": "period",
          "type": "uint256",
          "indexed": false,
          "internalType": "uint256"
        }
      ],
      "anonymous": false
    },
    {
      "type": "event",
      "name": "Vote",
      "inputs": [
        {
          "name": "proposalId",
          "type": "uint256",
          "indexed": true,
          "internalType": "uint256"
        },
        {
          "name": "vote",
          "type": "bool",
          "indexed": false,
          "internalType": "bool"
        }
      ],
      "anonymous": false
    },
    {
      "type": "error",
      "name": "OwnableInvalidOwner",
      "inputs": [
        {
          "name": "owner",
          "type": "address",
          "internalType": "address"
        }
      ]
    },
    {
      "type": "error",
      "name": "OwnableUnauthorizedAccount",
      "inputs": [
        {
          "name": "account",
          "type": "address",
          "internalType": "address"
        }
      ]
    }
  ],
  "bytecode": {
    "object": "0x60a060409080825234620001ab57818162000ffd80380380916200002482856200020d565b833981010312620001ab5780516001600160a01b0380821691829003620001ab57602080930151818116809103620001ab578215620001f65790604484925f8054918060018060a01b0319888186161784558a519889978896167f8be0079c531659141344cd1fd0a4f28419497f9722a3daafe3b4186f6b6457e08680a3600154161760015563095ea7b360e01b8352306004840152811960248401525af1908115620001ec575f91620001af575b5015620001ab5781517f8b73c3c69bb8fe3d512ecc4cf759cc79239f7b179b0ffacaa9a75d522b39400f9181019182527f0718f5c20dedfbb2df85158680c32db949c6041734c08117944493a2ed1c5ac2818401527fc89efdaa54c0f20c7adf612882df0950f5a951637e0307cdcb4c672f298b8bc660608201524660808201523060a080830191909152815260c08101926001600160401b038411828510176200019757839052519020608052610dcb9081620002328239608051816109a30152f35b634e487b7160e01b5f52604160045260245ffd5b5f80fd5b90508181813d8311620001e4575b620001c981836200020d565b81010312620001ab57518015158103620001ab575f620000d3565b503d620001bd565b83513d5f823e3d90fd5b8451631e4fbdf760e01b81525f6004820152602490fd5b601f909101601f19168101906001600160401b03821190821017620001975760405256fe604060808152600480361015610013575f80fd5b60e0905f3560e01c91826303c5b1dc14610b775782632574683414610b2557826328bde61514610ae05782632e1a7d4d146109c65782633644e5151461098c5782635e3b43651461080f57508163715018a6146107b857816374294144146107585781638da5cb5b14610731578163a618b74e1461065f578163b646c1941461061a578163b6b55f25146104a2578163b759f954146103d7578163c7977be71461039d578163c7d480fb1461033a578163c7f758a814610294578163c9d27afe146101e0578163f01593a9146101b7578163f2fde38b14610128575063fc0c546a146100fd575f80fd5b34610124575f3660031901126101245760015490516001600160a01b039091168152602090f35b5f80fd5b8234610124576020366003190112610124576001600160a01b038235818116939192908490036101245761015a610d6a565b83156101a15750505f54826bffffffffffffffffffffffff60a01b8216175f55167f8be0079c531659141344cd1fd0a4f28419497f9722a3daafe3b4186f6b6457e05f80a3005b905f6024925191631e4fbdf760e01b8352820152fd5b8234610124575f366003190112610124576020906101d3610c63565b8281519101209051908152f35b823461012457806003193601126101245781359160243590811515820361012457335f52600260205260ff835f205416156101245760055484101561012457835f526007602052825f2060ff60068201541661012457806002600361024a93015491015490610ce7565b421161012457835f526007602052825f200180546006548110156101245761027190610cad565b905561027957005b6005915f5260076020525f20016102908154610cad565b9055005b9050346101245760203660031901126101245780356102b1610d0c565b50335f52600260205260ff835f20541615610124576005548110156101245760e092610338915f52600760205260ff6006825f208351956102f187610c11565b81548752836001830154166020880152600282015485880152600382015460608801528101546080870152600581015460a0870152015416151560c0840152518092610bcb565bf35b8234610124575f36600319011261012457610353610c63565b908051809260208083528151918260208501525f5b8381106103875750505f83830185015250601f01601f19168101030190f35b8181018301518782018701528694508201610368565b8234610124575f36600319011261012457602090517f8b73c3c69bb8fe3d512ecc4cf759cc79239f7b179b0ffacaa9a75d522b39400f8152f35b823461012457602036600319011261012457813591335f528060205260ff825f205416156101245760055483101561012457825f526007602052815f2060ff60068201541661012457806002600361043493015491015490610ce7565b42111561012457825f526007602052815f2060058101549160ff600182840154930154169182810292818404149015171561048f5750606490041015610124575f91825260076020529020600601805460ff19166001179055005b601190634e487b7160e01b5f525260245ffd5b9050346101245760208060031936011261012457813591335f526002825260ff845f20541615610124576001548451636eb1769f60e11b815233838201523060248201526001600160a01b0390911693908381604481885afa80156105df5782915f916105e9575b50106101245784516370a0823160e01b815233838201528381602481885afa80156105df5782915f916105ae575b501061012457604483925f8751968794859363a9059cbb60e01b8552309085015260248401525af19283156105a557505f92610578575b50501561012457005b6105979250803d1061059e575b61058f8183610c41565b810190610ccf565b5f8061056f565b503d610585565b513d5f823e3d90fd5b809250858092503d83116105d8575b6105c78183610c41565b81010312610124578190515f610538565b503d6105bd565b86513d5f823e3d90fd5b809250858092503d8311610613575b6106028183610c41565b81010312610124578190515f61050a565b503d6105f8565b9050346101245760203660031901126101245780356001600160a01b0381169081900361012457610649610d6a565b5f526020525f20600160ff198254161790555f80f35b823461012457602036600319011261012457813591335f52600360205260ff825f2054161561012457821561012457815160209361069c82610c11565b815260ff60068583019260508452858101946201518086526060820190428252608083015f815260a08401925f845260c08501985f8a526005545f5260078c528a5f20955186558760018701995116988819998a825416179055516002860155516003850155519083015551600582015501925115159183541691161790556005549061072882610cad565b60055551908152f35b8234610124575f366003190112610124575f5490516001600160a01b039091168152602090f35b905034610124578160031936011261012457356024359160ff8316809303610124575f546001600160a01b03163303610124576005548210156101245760648311610124575f91825260076020529020600101805460ff19169091179055005b34610124575f366003190112610124576107d0610d6a565b5f80546001600160a01b0319811682556001600160a01b03167f8be0079c531659141344cd1fd0a4f28419497f9722a3daafe3b4186f6b6457e08280a3005b9150346101245761081f36610bb5565b919092335f526002906020926002845260ff9660ff815f20541615610124576108488688610ce7565b9260059360055411156101245761085e87610cf4565b9661086b83519889610c41565b80885261087781610cf4565b601f1901875f5b82811061097657505050885b898103818111610963578211156109155780610910915f5260078952845f208c60068751926108b884610c11565b80548452826001820154168d8501528b81015489850152600381015460608501528981015460808501528a81015460a0850152015416151560c08201526108ff828c610d42565b5261090a818b610d42565b50610cad565b61088a565b83518881528951818a018190528190818701908c8c01908c5f895b83821061093d5786860387f35b9184965082866109536001949698849851610bcb565b0196019201869594929391610930565b601186634e487b7160e01b5f525260245ffd5b61097e610d0c565b82828d01015201889061087e565b8334610124575f36600319011261012457602090517f00000000000000000000000000000000000000000000000000000000000000008152f35b8382346101245760208060031936011261012457813591335f526003825260ff845f2054161561012457825f5260078252835f20805415610124576006015460ff16156101245760015484516370a0823160e01b815230838201526001600160a01b03909116938382602481885afa9182156105df575f92610ab1575b505f5260078352845f205480911061012457606483925f875196879485936323b872dd60e01b8552309085015233602485015260448401525af19283156105a557505f92610a945750501561012457005b610aaa9250803d1061059e5761058f8183610c41565b818061056f565b9091508381813d8311610ad9575b610ac98183610c41565b8101031261012457519086610a43565b503d610abf565b83823461012457602036600319011261012457356001600160a01b0381169081900361012457610b0e610d6a565b5f908152600360205220805460ff19166001179055005b83823461012457602036600319011261012457356001600160a01b0381169081900361012457610b53610d6a565b5f5260026020525f20600160ff19825416179055610b72600654610cad565b600655005b833461012457610b8636610bb5565b5f549092906001600160a01b0316330361012457620151808311610124575f9182526007602052902060020155005b6040906003190112610124576004359060243590565b60c080918051845260ff602082015116602085015260408101516040850152606081015160608501526080810151608085015260a081015160a085015201511515910152565b60e0810190811067ffffffffffffffff821117610c2d57604052565b634e487b7160e01b5f52604160045260245ffd5b90601f8019910116810190811067ffffffffffffffff821117610c2d57604052565b604051906040820182811067ffffffffffffffff821117610c2d57604052602082527f5369676e496e286164647265737320757365722c75696e7433322074696d65296020830152565b5f198114610cbb5760010190565b634e487b7160e01b5f52601160045260245ffd5b90816020910312610124575180151581036101245790565b91908201809211610cbb57565b67ffffffffffffffff8111610c2d5760051b60200190565b60405190610d1982610c11565b5f60c0838281528260208201528260408201528260608201528260808201528260a08201520152565b8051821015610d565760209160051b010190565b634e487b7160e01b5f52603260045260245ffd5b5f546001600160a01b03163303610d7d57565b60405163118cdaa760e01b8152336004820152602490fdfea2646970667358221220685d5d9ccebef131c3c6f161afbbde381d337ce0947bbe548c486c718097d5f164736f6c63430008180033",
    "linkReferences": {}
  },
  "methodIdentifiers": {
    "DOMAIN_SEPARATOR()": "3644e515",
    "EIP712_DOMAIN_TYPEHASH()": "c7977be7",
    "SIGNIN_TYPE()": "c7d480fb",
    "SIGNIN_TYPEHASH()": "f01593a9",
    "addApprover(address)": "b646c194",
    "addDonor(address)": "25746834",
    "addResearcher(address)": "28bde615",
    "approve(uint256)": "b759f954",
    "deposit(uint256)": "b6b55f25",
    "getProposal(uint256)": "c7f758a8",
    "getProposals(uint256,uint256)": "5e3b4365",
    "owner()": "8da5cb5b",
    "propose(uint256)": "a618b74e",
    "renounceOwnership()": "715018a6",
    "setPeriod(uint256,uint256)": "03c5b1dc",
    "setThreshold(uint256,uint8)": "74294144",
    "token()": "fc0c546a",
    "transferOwnership(address)": "f2fde38b",
    "vote(uint256,bool)": "c9d27afe",
    "withdraw(uint256)": "2e1a7d4d"
  },
  "id": 8
}