{
  "abi": [
    {
      "type": "constructor",
      "inputs": [
        {
          "name": "initialOwner",
          "type": "address",
          "internalType": "address"
        }
      ],
      "stateMutability": "nonpayable"
    },
    {
      "type": "function",
      "name": "allowance",
      "inputs": [
        {
          "name": "owner",
          "type": "address",
          "internalType": "address"
        },
        {
          "name": "spender",
          "type": "address",
          "internalType": "address"
        }
      ],
      "outputs": [
        {
          "name": "",
          "type": "uint256",
          "internalType": "uint256"
        }
      ],
      "stateMutability": "view"
    },
    {
      "type": "function",
      "name": "approve",
      "inputs": [
        {
          "name": "spender",
          "type": "address",
          "internalType": "address"
        },
        {
          "name": "value",
          "type": "uint256",
          "internalType": "uint256"
        }
      ],
      "outputs": [
        {
          "name": "",
          "type": "bool",
          "internalType": "bool"
        }
      ],
      "stateMutability": "nonpayable"
    },
    {
      "type": "function",
      "name": "balanceOf",
      "inputs": [
        {
          "name": "account",
          "type": "address",
          "internalType": "address"
        }
      ],
      "outputs": [
        {
          "name": "",
          "type": "uint256",
          "internalType": "uint256"
        }
      ],
      "stateMutability": "view"
    },
    {
      "type": "function",
      "name": "decimals",
      "inputs": [],
      "outputs": [
        {
          "name": "",
          "type": "uint8",
          "internalType": "uint8"
        }
      ],
      "stateMutability": "pure"
    },
    {
      "type": "function",
      "name": "name",
      "inputs": [],
      "outputs": [
        {
          "name": "",
          "type": "string",
          "internalType": "string"
        }
      ],
      "stateMutability": "view"
    },
    {
      "type": "function",
      "name": "owner",
      "inputs": [],
      "outputs": [
        {
          "name": "",
          "type": "address",
          "internalType": "address"
        }
      ],
      "stateMutability": "view"
    },
    {
      "type": "function",
      "name": "renounceOwnership",
      "inputs": [],
      "outputs": [],
      "stateMutability": "nonpayable"
    },
    {
      "type": "function",
      "name": "symbol",
      "inputs": [],
      "outputs": [
        {
          "name": "",
          "type": "string",
          "internalType": "string"
        }
      ],
      "stateMutability": "view"
    },
    {
      "type": "function",
      "name": "totalSupply",
      "inputs": [],
      "outputs": [
        {
          "name": "",
          "type": "uint256",
          "internalType": "uint256"
        }
      ],
      "stateMutability": "view"
    },
    {
      "type": "function",
      "name": "transfer",
      "inputs": [
        {
          "name": "to",
          "type": "address",
          "internalType": "address"
        },
        {
          "name": "value",
          "type": "uint256",
          "internalType": "uint256"
        }
      ],
      "outputs": [
        {
          "name": "",
          "type": "bool",
          "internalType": "bool"
        }
      ],
      "stateMutability": "nonpayable"
    },
    {
      "type": "function",
      "name": "transferFrom",
      "inputs": [
        {
          "name": "from",
          "type": "address",
          "internalType": "address"
        },
        {
          "name": "to",
          "type": "address",
          "internalType": "address"
        },
        {
          "name": "value",
          "type": "uint256",
          "internalType": "uint256"
        }
      ],
      "outputs": [
        {
          "name": "",
          "type": "bool",
          "internalType": "bool"
        }
      ],
      "stateMutability": "nonpayable"
    },
    {
      "type": "function",
      "name": "transferOwnership",
      "inputs": [
        {
          "name": "newOwner",
          "type": "address",
          "internalType": "address"
        }
      ],
      "outputs": [],
      "stateMutability": "nonpayable"
    },
    {
      "type": "event",
      "name": "Approval",
      "inputs": [
        {
          "name": "owner",
          "type": "address",
          "indexed": true,
          "internalType": "address"
        },
        {
          "name": "spender",
          "type": "address",
          "indexed": true,
          "internalType": "address"
        },
        {
          "name": "value",
          "type": "uint256",
          "indexed": false,
          "internalType": "uint256"
        }
      ],
      "anonymous": false
    },
    {
      "type": "event",
      "name": "OwnershipTransferred",
      "inputs": [
        {
          "name": "previousOwner",
          "type": "address",
          "indexed": true,
          "internalType": "address"
        },
        {
          "name": "newOwner",
          "type": "address",
          "indexed": true,
          "internalType": "address"
        }
      ],
      "anonymous": false
    },
    {
      "type": "event",
      "name": "Transfer",
      "inputs": [
        {
          "name": "from",
          "type": "address",
          "indexed": true,
          "internalType": "address"
        },
        {
          "name": "to",
          "type": "address",
          "indexed": true,
          "internalType": "address"
        },
        {
          "name": "value",
          "type": "uint256",
          "indexed": false,
          "internalType": "uint256"
        }
      ],
      "anonymous": false
    },
    {
      "type": "error",
      "name": "ERC20InsufficientAllowance",
      "inputs": [
        {
          "name": "spender",
          "type": "address",
          "internalType": "address"
        },
        {
          "name": "allowance",
          "type": "uint256",
          "internalType": "uint256"
        },
        {
          "name": "needed",
          "type": "uint256",
          "internalType": "uint256"
        }
      ]
    },
    {
      "type": "error",
      "name": "ERC20InsufficientBalance",
      "inputs": [
        {
          "name": "sender",
          "type": "address",
          "internalType": "address"
        },
        {
          "name": "balance",
          "type": "uint256",
          "internalType": "uint256"
        },
        {
          "name": "needed",
          "type": "uint256",
          "internalType": "uint256"
        }
      ]
    },
    {
      "type": "error",
      "name": "ERC20InvalidApprover",
      "inputs": [
        {
          "name": "approver",
          "type": "address",
          "internalType": "address"
        }
      ]
    },
    {
      "type": "error",
      "name": "ERC20InvalidReceiver",
      "inputs": [
        {
          "name": "receiver",
          "type": "address",
          "internalType": "address"
        }
      ]
    },
    {
      "type": "error",
      "name": "ERC20InvalidSender",
      "inputs": [
        {
          "name": "sender",
          "type": "address",
          "internalType": "address"
        }
      ]
    },
    {
      "type": "error",
      "name": "ERC20InvalidSpender",
      "inputs": [
        {
          "name": "spender",
          "type": "address",
          "internalType": "address"
        }
      ]
    },
    {
      "type": "error",
      "name": "OwnableInvalidOwner",
      "inputs": [
        {
          "name": "owner",
          "type": "address",
          "internalType": "address"
        }
      ]
    },
    {
      "type": "error",
      "name": "OwnableUnauthorizedAccount",
      "inputs": [
        {
          "name": "account",
          "type": "address",
          "internalType": "address"
        }
      ]
    }
  ],
  "bytecode": {
    "object": "0x608034620003c157601f1990601f6001600160401b0362000bf6388190038381018616850183811186821017620002ce57859282916040528339602094859181010312620003c157516001600160a01b038082169590929091869003620003c1576200006a620003c5565b9362000075620003c5565b94805191838311620002ce5760039283546001938482811c92168015620003b6575b8b831014620003a25781848493116200034f575b508a90848311600114620002ee575f92620002e2575b50505f1982861b1c191690831b1783555b8651938411620002ce5760049687548381811c91168015620002c3575b8a821014620002b05782811162000268575b50889185116001146200020357849550908492915f95620001f7575b50501b925f19911b1c19161782555b8315620001e057600580546001600160a01b0319811686179091558491167f8be0079c531659141344cd1fd0a4f28419497f9722a3daafe3b4186f6b6457e05f80a36002545f1991828201809211620001cd57506002555f838152808352604080822080548401905551918252917fddf252ad1be2c89b69c2b068fc378daa952ba7f163c4a11628f55a4df523b3ef91a36040516107ff9081620003f78239f35b601190634e487b7160e01b5f525260245ffd5b604051631e4fbdf760e01b81525f81840152602490fd5b015193505f806200011d565b929194841692875f5284895f20945f5b8b8983831062000250575050501062000236575b50505050811b0182556200012c565b01519060f8845f19921b161c191690555f80808062000227565b86860151895590970196948501948893500162000213565b885f52895f208380880160051c8201928c8910620002a6575b0160051c019084905b8281106200029a57505062000101565b5f81550184906200028a565b9250819262000281565b602289634e487b7160e01b5f525260245ffd5b90607f1690620000ef565b634e487b7160e01b5f52604160045260245ffd5b015190505f80620000c1565b908886941691875f528c5f20928d5f905b8282106200033757505084116200031f575b505050811b018355620000d2565b01515f1983881b60f8161c191690555f808062000311565b83850151865589979095019493840193018e620002ff565b909150855f528a5f208480850160051c8201928d861062000398575b918791869594930160051c01915b82811062000389575050620000ab565b5f815585945087910162000379565b925081926200036b565b634e487b7160e01b5f52602260045260245ffd5b91607f169162000097565b5f80fd5b60408051919082016001600160401b03811183821017620002ce5760405260048252635553444360e01b602083015256fe608060409080825260049081361015610016575f80fd5b5f3560e01c90816306fdde031461055a57508063095ea7b3146104b157806318160ddd1461049357806323b872dd146103a2578063313ce5671461038757806370a0823114610351578063715018a6146102f65780638da5cb5b146102ce57806395d89b41146101ae578063a9059cbb1461017e578063dd62ed3e146101355763f2fde38b146100a4575f80fd5b34610131576020366003190112610131576100bd610697565b906100c661079d565b6001600160a01b0391821692831561011b575050600554826bffffffffffffffffffffffff60a01b821617600555167f8be0079c531659141344cd1fd0a4f28419497f9722a3daafe3b4186f6b6457e05f80a3005b905f6024925191631e4fbdf760e01b8352820152fd5b5f80fd5b8234610131578060031936011261013157602090610151610697565b6101596106ad565b9060018060a01b038091165f5260018452825f2091165f528252805f20549051908152f35b82346101315780600319360112610131576020906101a761019d610697565b60243590336106c3565b5160018152f35b509034610131575f366003190112610131578051905f835460018160011c90600183169283156102c4575b60209384841081146102b1578388529081156102955750600114610241575b505050829003601f01601f191682019267ffffffffffffffff84118385101761022e575082918261022a925282610650565b0390f35b604190634e487b7160e01b5f525260245ffd5b5f878152929350837f8a35acfbc15ff81a39ae7d344fd709f28e8600b4aa8c65c6b64bfe7fe36bd19b5b83851061028157505050508301015f80806101f8565b80548886018301529301928490820161026b565b60ff1916878501525050151560051b84010190505f80806101f8565b602289634e487b7160e01b5f525260245ffd5b91607f16916101d9565b8234610131575f3660031901126101315760055490516001600160a01b039091168152602090f35b34610131575f3660031901126101315761030e61079d565b600580546001600160a01b031981169091555f906001600160a01b03167f8be0079c531659141344cd1fd0a4f28419497f9722a3daafe3b4186f6b6457e08280a3005b8234610131576020366003190112610131576020906001600160a01b03610376610697565b165f525f8252805f20549051908152f35b8234610131575f366003190112610131576020905160068152f35b5034610131576060366003190112610131576103bc610697565b6103c46106ad565b906044359260018060a01b038216805f526001602052855f20335f52602052855f2054915f1983036103ff575b6020876101a78888886106c3565b85831061046757811561045157331561043b57505f908152600160209081528682203383528152908690209185900390915582906101a76103f1565b6024905f885191634a1406b160e11b8352820152fd5b6024905f88519163e602df0560e01b8352820152fd5b8651637dc7a0d960e11b8152339181019182526020820193909352604081018690528291506060010390fd5b8234610131575f366003190112610131576020906002549051908152f35b5090346101315780600319360112610131576104cb610697565b602435903315610544576001600160a01b031690811561052e5760209350335f5260018452825f20825f52845280835f205582519081527f8c5be1e5ebec7d5bd14f71427d1e84f3dd0314c0f7b2291e5b200ac8c7c3b925843392a35160018152f35b8251634a1406b160e11b81525f81860152602490fd5b825163e602df0560e01b81525f81860152602490fd5b90508234610131575f366003190112610131575f60035460018160011c9060018316928315610646575b60209384841081146102b15783885290811561062a57506001146105d457505050829003601f01601f191682019267ffffffffffffffff84118385101761022e575082918261022a925282610650565b60035f908152929350837fc2575a0e9e593c00f959f8c92f12db2869c3395a3b0502d05e2516446f71f85b5b83851061061657505050508301018480806101f8565b805488860183015293019284908201610600565b60ff1916878501525050151560051b84010190508480806101f8565b91607f1691610584565b602080825282518183018190529093925f5b82811061068357505060409293505f838284010152601f8019910116010190565b818101860151848201604001528501610662565b600435906001600160a01b038216820361013157565b602435906001600160a01b038216820361013157565b916001600160a01b03808416928315610785571692831561076d57825f525f60205260405f20549082821061073b5750817fddf252ad1be2c89b69c2b068fc378daa952ba7f163c4a11628f55a4df523b3ef92602092855f525f84520360405f2055845f5260405f20818154019055604051908152a3565b60405163391434e360e21b81526001600160a01b03919091166004820152602481019190915260448101829052606490fd5b60405163ec442f0560e01b81525f6004820152602490fd5b604051634b637e8f60e11b81525f6004820152602490fd5b6005546001600160a01b031633036107b157565b60405163118cdaa760e01b8152336004820152602490fdfea2646970667358221220dada9580e992d1ee15578ca4cc4fd96631c1d4e00a6b1126f6172490bca2581764736f6c63430008180033",
    "linkReferences": {}
  },
  "methodIdentifiers": {
    "allowance(address,address)": "dd62ed3e",
    "approve(address,uint256)": "095ea7b3",
    "balanceOf(address)": "70a08231",
    "decimals()": "313ce567",
    "name()": "06fdde03",
    "owner()": "8da5cb5b",
    "renounceOwnership()": "715018a6",
    "symbol()": "95d89b41",
    "totalSupply()": "18160ddd",
    "transfer(address,uint256)": "a9059cbb",
    "transferFrom(address,address,uint256)": "23b872dd",
    "transferOwnership(address)": "f2fde38b"
  },
  "id": 9
}